:020000040800F2
:1000000000280020950C0008E50C0008E50C00080D
:10001000E50C0008E50C0008E50C000800000000F5
:10002000000000000000000000000000E50C0008D7
:10003000E50C000800000000E50C0008310900088C
:10004000E50C0008E50C0008E50C0008E50C0008CC
:10005000E50C0008E50C0008E50C0008E50C0008BC
:10006000E50C0008E50C0008E50C0008E50C0008AC
:10007000E50C0008E50C0008E50C0008E50C00089C
:10008000E50C0008E50C0008E50C0008E50C00088C
:10009000E50C0008E50C0008E50C0008E50C00087C
:1000A000E50C0008E50C0008E50C0008E50C00086C
:1000B000E50C0008E50C0008E50C0008E50C00085C
:1000C000E50C0008E50C0008E50C0008E50C00084C
:1000D000E50C0008450B0008690B0008E50C00085A
:1000E000E50C0008E50C000800000000E50C000825
:1000F000E50C0008E50C0008E50C0008E50C00081C
:10010000E50C0008E50C0008E50C0008E50C00080B
:10011000E50C0008E50C0008E50C0008E50C0008FB
:10012000E50C0008E50C0008E50C0008E50C0008EB
:1001300010B5054C237833B9044B13B10448AFF321
:1001400000800123237010BD00000020000000008B
:10015000300D000808B5034B1BB103490348AFF34A
:10016000008008BD0000000004000020300D0008E1
:1001700080B483B000AF0346FB710B46BB711346DE
:100180007B71BB79072B52D8FB79022B37D0022B1E
:1001900000F3A980002B02D0012B18D0A3E0544B10
:1001A0001B68BA799200032101FA02F2D243114688
:1001B0004F4A0B4013604E4B1B687979BA79920015
:1001C00001FA02F211464A4A0B4313608BE0494B95
:1001D0001B68BA799200032101FA02F2D243114658
:1001E000444A0B401360434B1B687979BA799200FB
:1001F00001FA02F211463F4A0B43136073E03E4B93
:100200001B68BA799200032101FA02F2D243114627
:10021000394A0B401360384B1B687979BA799200E0
:1002200001FA02F21146344A0B4313605BE0BB79DA
:10023000072B57D9BB790F2B54D8BB79083BBB711F
:10024000FB79022B36D0022B4DDC002B02D0012B88
:1002500018D048E0264B5B68BA799200032101FA76
:1002600002F2D2431146224A0B405360204B5B6896
:100270007979BA79920001FA02F211461C4A0B43CD
:10028000536030E01B4B5B68BA799200032101FA9E
:1002900002F2D2431146174A0B405360154B5B687C
:1002A0007979BA79920001FA02F21146114A0B43A8
:1002B000536018E0104B5B68BA799200032101FA91
:1002C00002F2D24311460C4A0B4053600A4B5B6862
:1002D0007979BA79920001FA02F21146064A0B4383
:1002E000536000E000BF00BF0C37BD4680BC7047C4
:1002F00000080140000C01400010014080B483B0B0
:1003000000AF0346FB710B46BB7113467B71BB7993
:10031000072B58D8FB79022B3BD0022B00F3B5807A
:10032000002B02D0012B1AD0AFE05A4B1B68BA79D0
:1003300092000232032101FA02F2D2431146554AD9
:100340000B401360534B1B687979BA7992000232E3
:1003500001FA02F211464F4A0B43136095E04E4BEF
:100360001B68BA7992000232032101FA02F2D243E9
:100370001146494A0B401360474B1B687979BA799B
:100380009200023201FA02F21146434A0B43136013
:100390007BE0424B1B68BA7992000232032101FADA
:1003A00002F2D24311463D4A0B4013603B4B1B689F
:1003B0007979BA799200023201FA02F21146374A8B
:1003C0000B43136061E0BB79072B5DD9BB790F2B21
:1003D0005AD8BB79083BBB71FB79022B3AD0022B70
:1003E00053DC002B02D0012B1AD04EE0294B5B6866
:1003F000BA7992000232032101FA02F2D243114685
:10040000244A0B405360234B5B687979BA79920098
:10041000023201FA02F211461E4A0B43536034E0E5
:100420001D4B5B68BA7992000232032101FA02F295
:10043000D2431146184A0B405360174B5B687979D9
:10044000BA799200023201FA02F21146124A0B43C3
:1004500053601AE0114B5B68BA79920002320321B3
:1004600001FA02F2D24311460C4A0B4053600B4B87
:100470005B687979BA799200023201FA02F2114688
:10048000064A0B43536000E000BF00BF0C37BD4677
:1004900080BC704700080140000C01400010014082
:1004A00080B483B000AF0346FB710B46BB711346AB
:1004B0007B717B79012B2AD1FB79022B1CD0022B7B
:1004C00053DC002B02D0012B0BD04EE0294BDB6814
:1004D000BA79012101FA02F21146264A0B43D36090
:1004E00043E0254BDB68BA79012101FA02F211469B
:1004F000214A0B43D36038E0204BDB68BA790121F5
:1005000001FA02F211461D4A0B43D3602DE0FB793C
:10051000022B1ED0022B28DC002B02D0012B0CD08A
:1005200023E0144BDB68BA79012101FA02F2D243CD
:100530001146104A0B40D36017E00F4BDB68BA79C5
:10054000012101FA02F2D24311460B4A0B40D3605B
:100550000BE00A4BDB68BA79012101FA02F2D243BF
:100560001146064A0B40D36000BF00BF0C37BD46A2
:1005700080BC704700080140000C014000100140A1
:1005800080B485B000AF03460A46FB711346BB71C9
:100590000023FB73FB79022B1AD0022B22DC002BE9
:1005A00002D0012B0AD01DE0114B9A68BB7922FAC8
:1005B00003F3DBB203F00103FB7313E00D4B9A6806
:1005C000BB7922FA03F3DBB203F00103FB7309E00A
:1005D000094B9A68BB7922FA03F3DBB203F00103FB
:1005E000FB7300BFFB7B18461437BD4680BC7047C9
:1005F00000080140000C01400010014080B582B0AD
:1006000000AF0346FB710B46BB7113467B71FB7950
:100610000233DBB21946032000F024F9B979FB79E3
:1006200003221846FFF7A4FD7979FB7903221846C7
:10063000FFF79EFDB979FB7900221846FFF75EFEB1
:100640007979FB7900221846FFF758FE00BF08377A
:10065000BD4680BD80B582B000AF0346FB710B463E
:10066000BB7113467B717979FB7900221846FFF73D
:1006700017FFB979FB7901221846FFF711FF00BF78
:100680000837BD4680BD80B582B000AF0346FB7120
:100690000B46BB7113467B71B979FB790022184672
:1006A000FFF7FEFE7979FB7901221846FFF7F8FE85
:1006B00000BF0837BD4680BD80B582B000AF03469D
:1006C000FB710B46BB7113467B71B979FB79002234
:1006D0001846FFF7E5FE7979FB7900221846FFF707
:1006E000DFFE00BF0837BD4680BD90B583B000AFC8
:1006F0000446084611461A462346FB710346BB7161
:100700000B467B7113463B717A79B979FB791846B0
:10071000FFF7A0FF3A7E3979FB791846FFF79AFF79
:1007200000BF0C37BD4690BD90B583B000AF044606
:10073000084611461A462346FB710346BB710B4619
:100740007B7113463B717A79B979FB791846FFF7CB
:100750009AFF3A7E3979FB791846FFF794FF00BF7C
:100760000C37BD4690BD90B583B000AF0446084637
:1007700011461A462346FB710346BB710B467B713B
:1007800013463B717A79B979FB791846FFF794FFE4
:100790003A7E3979FB791846FFF75CFF00BF0C37CA
:1007A000BD4690BD90B583B000AF044608461146E3
:1007B0001A462346FB710346BB710B467B711346F9
:1007C0003B713A7E3979FB791846FFF775FF7A79E4
:1007D000B979FB791846FFF73DFF00BF0C37BD46DE
:1007E00090BD90B583B000AF0446084611461A4646
:1007F0002346FB710346BB710B467B7113463B716D
:100800007A79B979FB791846FFF756FF3A7E39793C
:10081000FB791846FFF750FF00BF0C37BD4690BD6F
:1008200080B400AF0E4B1B680D4A43F00103136008
:1008300000BF0B4B1B685B0803F00103002BF8D0D3
:10084000074B5B68064A23F001035360044B5B6867
:10085000034A23F00203536000BFBD4680BC7047CB
:100860000010024080B483B000AF03460A46FB711B
:100870001346BB71BB791F2B2AD8FB79032B1CD0E5
:10088000032B26DC012B02D0022B0BD021E0134BD3
:100890005B69BA79012101FA02F211460F4A0B4352
:1008A000536116E00D4BDB69BA79012101FA02F2BE
:1008B00011460A4A0B43D3610BE0084B9B69BA7996
:1008C000012101FA02F21146044A0B43936100E050
:1008D00000BF00BF0C37BD4680BC7047001002400F
:1008E00080B483B000AF7860104A7B6853600F4BD0
:1008F0001B680E4A43F00103136000BF0B4B1B68DB
:100900001B0C03F00103002BF8D0084B1B68074AAF
:1009100023F001031360054B00225A60034B0022B1
:100920009A6000BF0C37BD4680BC704710E000E005
:1009300080B582B000AF124B1B68002B11D1114B58
:100940001B68104A23F0020313600E4B1B680D4A0C
:1009500023F0010313600B4B00225A60094B002265
:100960009A60094B1B689847064B1B681B0CDBB24F
:1009700003F00103FB7100BF0837BD4680BD00BF17
:100980002000002010E000E01C00002080B582B0B4
:1009900000AF78607B684FF47A7202FB03F318466D
:1009A000FFF79EFF00BF0837BD4680BD80B500AF92
:1009B00011210220FFF756FF02210320FFF752FF0B
:1009C00000210320FFF74EFF032202210020FFF742
:1009D000CFFB022202210020FFF790FC002203211E
:1009E0000020FFF7C5FB012203210020FFF786FC52
:1009F000284BDB68274A23F40053D360254B0022A1
:100A00001A60244BDB68234A23F48053D360214BC4
:100A10001B69204A23F4805313611E4B1B691D4A36
:100A200023F4005313611B4BDB681A4A43F008039D
:100A3000D360184BDB68174A43F00403D360154BAF
:100A400040F241329A60134B1B69124A23F400634F
:100A50001361104B1B690F4A23F4804313610D4B44
:100A60005B690C4A23F0200353610A4B5B69094A16
:100A700023F008035361074B5B69064A23F0020326
:100A80005361044BDB68034A43F40053D36000BF57
:100A900080BD00BF0044004080B485B000AF034675
:100AA000FB710023FB734FF47A73BB81FB79012B3D
:100AB0001DD1224B1B68214A23F02003136002E062
:100AC000BB89013BBB811D4B1B685B0903F0010324
:100AD000002B02D1BB89002BF2D1184B5B68FB7352
:100AE000164B1B68154A23F0200313601FE0FB79A7
:100AF000022B1CD1124B1B68114A23F020031360F8
:100B000002E0BB89013BBB810D4B1B685B0903F015
:100B10000103002B02D1BB89002BF2D1084B5B688B
:100B2000FB73074B1B68064A23F020031360FB7B13
:100B300018461437BD4680BC704700BF00380140DE
:100B40000044004080B500AF054B1B68002B05D06A
:100B5000044B00221A60024B1B68984700BF80BDFF
:100B6000240000200038014080B500AF054B1B6811
:100B7000002B05D0044B00221A60024B1B689847DB
:100B800000BF80BD280000200044004080B584B034
:100B900002AFFFF745FE02210320FFF763FE0322A9
:100BA00007210020FFF7E4FA002207210020FFF7C9
:100BB000A5FB002206210020FFF7DAFA0222062117
:100BC0000020FFF79BFBFFF7F1FE01220021002030
:100BD000FFF714FD052204210020FFF70FFD02207E
:100BE000FFF75AFF0346FB71FB79462B08D105231B
:100BF00000930423012200210020FFF776FD2BE063
:100C0000FB79422B08D10523009304230122002104
:100C10000020FFF789FD1FE0FB794C2B08D105234D
:100C200000930423012200210020FFF79CFD13E024
:100C3000FB79522B08D105230093042301220021C4
:100C40000020FFF7AFFD07E00523009304230122F6
:100C500000210020FFF7C5FD06210020FFF790FCD2
:100C60000346012BBBD1052300930423012200215D
:100C70000020FFF7B6FD012207210020FFF710FC3E
:100C80004FF47A70FFF782FE002207210020FFF761
:100C900007FCA4E70D488546AFF300800C480D49DA
:100CA0000D4A002302E0D458C4500433C4188C42C7
:100CB000F9D30A4A0A4C002301E013600432A2422D
:100CC000FBD300F011F8FFF761FFFEE700280020DA
:100CD0000000002000000020500D0008000000204F
:100CE0002C000020FEE7000070B500260C4D0D4CD6
:100CF000641BA410A64209D100F01AF800260A4D80
:100D00000A4C641BA410A64205D170BD55F8043BE3
:100D100098470136EEE755F8043B98470136F2E76D
:100D2000480D0008480D0008480D00084C0D00084B
:100D3000F8B500BFF8BC08BC9E467047F8B500BFC8
:080D4000F8BC08BC9E46704798
:040D48005501000849
:040D4C003101000869
:0400000508000C954E
:00000001FF
