:020000040800F2
:10000000002800203D1700088D1700088D170008F4
:100010008D1700088D1700088D17000800000000DC
:100020000000000000000000000000008D17000824
:100030008D170008000000008D17000851150008FA
:100040008D1700088D1700088D1700088D17000800
:100050008D1700088D1700088D1700088D170008F0
:100060008D1700088D1700088D1700088D170008E0
:100070008D1700088D1700088D1700088D170008D0
:100080008D1700088D1700088D1700088D170008C0
:100090008D1700088D1700088D1700088D170008B0
:1000A0008D1700088D1700088D1700088D170008A0
:1000B0008D1700088D1700088D1700088D17000890
:1000C0008D1700088D1700088D1700088D17000880
:1000D0008D170008CD150008F11500088D170008D0
:1000E0008D1700088D170008000000008D1700080C
:1000F0008D1700088D1700088D1700088D17000850
:100100008D1700088D1700088D1700088D1700083F
:100110008D1700088D1700088D1700088D1700082F
:100120008D1700088D1700088D1700088D1700081F
:1001300010B5054C237833B9044B13B10448AFF321
:1001400000800123237010BD00000020000000008B
:10015000D817000808B5034B1BB103490348AFF398
:10016000008008BD0000000004000020D81700082F
:1001700081F0004102E000BF83F0004330B54FEA58
:1001800041044FEA430594EA050F08BF90EA020FC5
:100190001FBF54EA000C55EA020C7FEA645C7FEA58
:1001A000655C00F0E2804FEA5454D4EB5555B8BF7B
:1001B0006D420CDD2C4480EA020281EA030382EAEC
:1001C000000083EA010180EA020281EA0303362D7E
:1001D00088BF30BD11F0004F4FEA01314FF4801C51
:1001E0004CEA113102D0404261EB410113F0004F63
:1001F0004FEA03334CEA133302D0524263EB43031A
:1002000094EA050F00F0A780A4F10104D5F1200EB7
:100210000DDB02FA0EFC22FA05F2801841F1000112
:1002200003FA0EF2801843FA05F359410EE0A5F1E6
:1002300020050EF1200E012A03FA0EFC28BF4CF017
:10024000020C43FA05F3C01851EBE37101F00045CD
:1002500007D54FF0000EDCF1000C7EEB00006EEBDA
:100260000101B1F5801F1BD3B1F5001F0CD3490864
:100270005FEA30004FEA3C0C04F101044FEA4452BB
:1002800012F5800F80F09A80BCF1004F08BF5FEA42
:10029000500C50F1000041EB045141EA050130BD22
:1002A0005FEA4C0C404141EB0101013C28BFB1F534
:1002B000801FE9D291F0000F04BF01460020B1FA7F
:1002C00081F308BF2033A3F10B03B3F120020CDA52
:1002D0000C3208DD02F1140CC2F10C0201FA0CF030
:1002E00021FA02F10CE002F11402D8BFC2F1200C95
:1002F00001FA02F120FA0CFCDCBF41EA0C0190404B
:10030000E41AA2BF01EB0451294330BD6FEA040493
:100310001F3C1CDA0C340EDC04F11404C4F120027E
:1003200020FA04F001FA02F340EA030021FA04F390
:1003300045EA030130BDC4F10C04C4F1200220FAE7
:1003400002F001FA04F340EA0300294630BD21FA25
:1003500004F0294630BD94F0000F83F4801306BFEB
:1003600081F480110134013D4EE77FEA645C18BFDF
:100370007FEA655C29D094EA050F08BF90EA020F76
:1003800005D054EA000C04BF1946104630BD91EA6E
:10039000030F1EBF0021002030BD5FEA545C05D171
:1003A0004000494128BF41F0004130BD14F58004B0
:1003B0003CBF01F5801130BD01F0004545F0FE4124
:1003C00041F470014FF0000030BD7FEA645C1ABF59
:1003D000194610467FEA655C1CBF0B46024650EA90
:1003E000013406BF52EA033591EA030F41F40021BC
:1003F00030BD00BF90F0000F04BF0021704730B542
:100400004FF4806404F132044FF000054FF0000116
:1004100050E700BF90F0000F04BF0021704730B5D7
:100420004FF4806404F1320410F0004548BF4042AC
:100430004FF000013EE700BF42004FEAE2014FEA01
:1004400031014FEA02701FBF12F07F4393F07F4FDC
:1004500081F06051704732F07F4208BF704793F0DF
:100460007F4F04BF41F40021704730B54FF46074F2
:1004700001F0004521F000411CE700BF50EA0102F5
:1004800008BF704730B54FF000050AE050EA01029E
:1004900008BF704730B511F0004502D5404261EB0E
:1004A00041014FF4806404F132045FEA915C3FF44F
:1004B000D8AE4FF003025FEADC0C18BF03325FEAEC
:1004C000DC0C18BF033202EBDC02C2F1200300FA9D
:1004D00003FC20FA02F001FA03FE40EA0E0021FAC2
:1004E00002F11444BDE600BF70B54FF0FF0C4CF4B0
:1004F000E06C1CEA11541DBF1CEA135594EA0C0F62
:1005000095EA0C0F00F0DEF82C4481EA030621EA9C
:100510004C5123EA4C5350EA013518BF52EA0335D7
:1005200041F4801143F4801338D0A0FB02CE4FF089
:100530000005E1FB02E506F00042E0FB03E54FF0B9
:100540000006E1FB03569CF0000F18BF4EF0010EB1
:10055000A4F1FF04B6F5007F64F5407404D25FEAAD
:100560004E0E6D4146EB060642EAC62141EA555160
:100570004FEAC52040EA5E504FEACE2EB4F1FD0CA2
:1005800088BFBCF5E06F1ED8BEF1004F08BF5FEA20
:10059000500E50F1000041EB045170BD06F00046D2
:1005A00046EA010140EA020081EA0301B4EB5C047F
:1005B000C2BFD4EB0C0541EA045170BD41F4801177
:1005C0004FF0000E013C00F3AB8014F1360FDEBF9C
:1005D000002001F0004170BDC4F10004203C35DA78
:1005E0000C341BDC04F11404C4F1200500FA05F3FB
:1005F00020FA04F001FA05F240EA020001F000429C
:1006000021F0004110EBD37021FA04F642EB060111
:100610005EEA430E08BF20EAD37070BDC4F10C043B
:10062000C4F1200500FA04F320FA05F001FA04F2FF
:1006300040EA020001F0004110EBD37041F10001EB
:100640005EEA430E08BF20EAD37070BDC4F12005F6
:1006500000FA05F24EEA020E20FA04F301FA05F25E
:1006600043EA020321FA04F001F0004121FA04F206
:1006700020EA020000EBD3705EEA430E08BF20EAD6
:10068000D37070BD94F0000F0FD101F00046400010
:1006900041EB010111F4801F08BF013CF7D041EA92
:1006A000060195F0000F18BF704703F00046520096
:1006B00043EB030313F4801F08BF013DF7D043EA67
:1006C0000603704794EA0C0F0CEA135518BF95EA1D
:1006D0000C0F0CD050EA410618BF52EA4306D1D1A4
:1006E00081EA030101F000414FF0000070BD50EAC3
:1006F000410606BF1046194652EA430619D094EA4D
:100700000C0F02D150EA013613D195EA0C0F05D136
:1007100052EA03361CBF104619460AD181EA03018A
:1007200001F0004141F0FE4141F470014FF0000042
:1007300070BD41F0FE4141F4780170BD70B54FF0DD
:10074000FF0C4CF4E06C1CEA11541DBF1CEA13555D
:1007500094EA0C0F95EA0C0F00F0A7F8A4EB05043F
:1007600081EA030E52EA03354FEA013100F0888036
:100770004FEA03334FF0805545EA131343EA1263FF
:100780004FEA022245EA111545EA10654FEA0026B4
:100790000EF000419D4208BF964244F1FD0404F56D
:1007A000407402D25B084FEA3202B61A65EB0305C9
:1007B0005B084FEA32024FF480104FF4002CB6EB86
:1007C000020E75EB030E22BFB61A754640EA0C0006
:1007D0005B084FEA3202B6EB020E75EB030E22BF46
:1007E000B61A754640EA5C005B084FEA3202B6EB87
:1007F000020E75EB030E22BFB61A754640EA9C0046
:100800005B084FEA3202B6EB020E75EB030E22BF15
:10081000B61A754640EADC0055EA060E18D04FEAD3
:10082000051545EA16754FEA06164FEAC30343EA73
:1008300052734FEAC2025FEA1C1CC0D111F4801F40
:100840000BD141EA00014FF000004FF0004CB6E739
:1008500011F4801F04BF01430020B4F1FD0C88BFD8
:10086000BCF5E06F3FF6AFAEB5EB030C04BFB6EBE3
:10087000020C5FEA500C50F1000041EB045170BDD6
:100880000EF0004E4EEA113114EB5C04C2BFD4EB03
:100890000C0541EA045170BD41F480114FF0000E87
:1008A000013C90E645EA060E8DE60CEA135594EA03
:1008B0000C0F08BF95EA0C0F3FF43BAF94EA0C0F06
:1008C0000AD150EA01347FF434AF95EA0C0F7FF47B
:1008D00025AF104619462CE795EA0C0F06D152EACF
:1008E00003353FF4FDAE1046194622E750EA4106B3
:1008F00018BF52EA43067FF4C5AE50EA41047FF4C4
:100900000DAF52EA43057FF4EBAE12E74FF0FF3C28
:1009100006E000BF4FF0010C02E000BF4FF0010CF9
:100920004DF804CD4FEA410C7FEA6C5C4FEA430C72
:1009300018BF7FEA6C5C1BD001B050EA410C0CBFC1
:1009400052EA430C91EA030F02BF90EA020F002023
:10095000704710F1000F91EA030F58BF994208BF8A
:1009600090422CBFD8176FEAE37040F00100704747
:100970004FEA410C7FEA6C5C02D150EA013C07D19E
:100980004FEA430C7FEA6C5CD6D152EA033CD3D0E9
:100990005DF8040B704700BF8446104662468C46E3
:1009A0001946634600E000BF01B5FFF7B7FF002816
:1009B00048BF10F1000F01BD4DF808EDFFF7F4FF3F
:1009C0000CBF012000205DF808FB00BF4DF808EDCA
:1009D000FFF7EAFF34BF012000205DF808FB00BFED
:1009E0004DF808EDFFF7E0FF94BF012000205DF80F
:1009F00008FB00BF4DF808EDFFF7CEFF94BF0120C4
:100A000000205DF808FB00BF4DF808EDFFF7C4FFBC
:100A100034BF012000205DF808FB00BF80B483B024
:100A200000AF0346FB710B46BB7113467B71BB796C
:100A3000072B52D8FB79022B37D0022B00F3A98069
:100A4000002B02D0012B18D0A3E0544B1B68BA79BD
:100A50009200032101FA02F2D24311464F4A0B40A1
:100A600013604E4B1B687979BA79920001FA02F251
:100A700011464A4A0B4313608BE0494B1B68BA7915
:100A80009200032101FA02F2D2431146444A0B407C
:100A90001360434B1B687979BA79920001FA02F22C
:100AA00011463F4A0B43136073E03E4B1B68BA7913
:100AB0009200032101FA02F2D2431146394A0B4057
:100AC0001360384B1B687979BA79920001FA02F207
:100AD0001146344A0B4313605BE0BB79072B57D9AF
:100AE000BB790F2B54D8BB79083BBB71FB79022B28
:100AF00036D0022B4DDC002B02D0012B18D048E061
:100B0000264B5B68BA799200032101FA02F2D243C4
:100B10001146224A0B405360204B5B687979BA79C1
:100B2000920001FA02F211461C4A0B43536030E076
:100B30001B4B5B68BA799200032101FA02F2D2439F
:100B40001146174A0B405360154B5B687979BA79A7
:100B5000920001FA02F21146114A0B43536018E069
:100B6000104B5B68BA799200032101FA02F2D2437A
:100B700011460C4A0B4053600A4B5B687979BA798D
:100B8000920001FA02F21146064A0B43536000E05C
:100B900000BF00BF0C37BD4680BC70470008014055
:100BA000000C01400010014080B483B000AF034648
:100BB000FB710B46BB7113467B71BB79072B58D871
:100BC000FB79022B3BD0022B00F3B580002B02D027
:100BD000012B1AD0AFE05A4B1B68BA79920002324F
:100BE000032101FA02F2D2431146554A0B40136029
:100BF000534B1B687979BA799200023201FA02F2FA
:100C000011464F4A0B43136095E04E4B1B68BA796F
:100C100092000232032101FA02F2D2431146494AFC
:100C20000B401360474B1B687979BA799200023206
:100C300001FA02F21146434A0B4313607BE0424B38
:100C40001B68BA7992000232032101FA02F2D24300
:100C500011463D4A0B4013603B4B1B687979BA79CA
:100C60009200023201FA02F21146374A0B43136036
:100C700061E0BB79072B5DD9BB790F2B5AD8BB79C3
:100C8000083BBB71FB79022B3AD0022B53DC002BC3
:100C900002D0012B1AD04EE0294B5B68BA79920042
:100CA0000232032101FA02F2D2431146244A0B40D8
:100CB0005360234B5B687979BA799200023201FA6A
:100CC00002F211461E4A0B43536034E01D4B5B6831
:100CD000BA7992000232032101FA02F2D24311469C
:100CE000184A0B405360174B5B687979BA799200C8
:100CF000023201FA02F21146124A0B4353601AE023
:100D0000114B5B68BA7992000232032101FA02F2B8
:100D1000D24311460C4A0B4053600B4B5B68797908
:100D2000BA799200023201FA02F21146064A0B43E6
:100D3000536000E000BF00BF0C37BD4680BC704769
:100D400000080140000C01400010014080B483B055
:100D500000AF0346FB710B46BB7113467B717B7979
:100D6000012B2AD1FB79022B1CD0022B53DC002B48
:100D700002D0012B0BD04EE0294BDB68BA79012160
:100D800001FA02F21146264A0B43D36043E0254B99
:100D9000DB68BA79012101FA02F21146214A0B43BC
:100DA000D36038E0204BDB68BA79012101FA02F206
:100DB00011461D4A0B43D3602DE0FB79022B1ED058
:100DC000022B28DC002B02D0012B0CD023E0144B8B
:100DD000DB68BA79012101FA02F2D2431146104AC6
:100DE0000B40D36017E00F4BDB68BA79012101FAA1
:100DF00002F2D24311460B4A0B40D3600BE00A4B80
:100E0000DB68BA79012101FA02F2D2431146064A9F
:100E10000B40D36000BF00BF0C37BD4680BC70479D
:100E200000080140000C01400010014080B500AFF7
:100E30000021032000F026FB1521022000F022FBF8
:100E40001F4B5B78DBB21E4A23F00203DBB2537008
:100E50000321032000F016FB032206210120FFF7E7
:100E6000DDFD032206210120FFF79EFE032207215C
:100E70000120FFF7D3FD032207210120FFF794FE95
:100E8000104B1B680F4A43F4004313600D4B1B6863
:100E90000C4A23F4004313600A4B08225A60094BA2
:100EA0002822DA61074B09221A62064B1B68054AA1
:100EB00043F001031360642000F078FB00BF80BDA5
:100EC000000001400054004080B483B000AF002314
:100ED000FB8000237B71124B1B68114A43F4807323
:100EE000136002E0FB880133FB800D4B5B6903F06C
:100EF0000103002B04D1FB8846F2A7129342F1D9DB
:100F0000074B5B69FB8846F2A712934201D9012384
:100F10007B717B7918460C37BD4680BC704700BF9B
:100F20000054004080B485B000AF0346FB7100233D
:100F3000FB730023BB811C4AFB79136102E0BB8970
:100F40000133BB81184B5B695B0803F00103002B85
:100F500004D1BB8946F2A7129342F0D90023BB818A
:100F600008E0114B5B69BB600F4B9B69BB60BB89A1
:100F70000133BB810C4B5B695B0803F00103012B60
:100F800004D1BB8946F2A7129342EAD9BB8946F243
:100F9000A712934201D90123FB73FB7B1846143738
:100FA000BD4680BC704700BF0054004080B485B08F
:100FB00000AF0346FB710023FB730023BB8102E0FB
:100FC000BB890133BB811A4B5B69DB0903F0010369
:100FD000002B04D1BB8946F2A7129342F0D9144AE0
:100FE000FB791361BB8946F2A712934201D9012311
:100FF000FB730023BB8102E0BB890133BB810C4B37
:101000005B69DB0903F00103002B04D1BB8946F2C5
:10101000A7129342F0D9BB8946F2A712934201D995
:101020000223FB73FB7B18461437BD4680BC704718
:101030000054004080B483B000AF084B5B697B6014
:10104000064B9B697B60054B1B68044A43F40073A5
:10105000136000BF0C37BD4680BC70470054004091
:1010600080B485B000AF0346FB710023FB81144BB5
:101070001B68134A43F48063136002E0FB89013369
:10108000FB810F4B5B699B0903F00103002B04D12B
:10109000FB8946F2A7129342F0D9094B1B697B7377
:1010A000FB79012B05D1064B1B68054A23F48063AD
:1010B00013607B7B18461437BD4680BC704700BF69
:1010C0000054004080B500AFFFF7FEFED020FFF7D0
:1010D00029FF6B20FFF76AFF0020FFF767FFFFF78C
:1010E000A9FFFFF7F1FED020FFF71CFF1A20FFF742
:1010F0005DFF0120FFF75AFFFFF79CFFFFF7E4FEBB
:10110000D020FFF70FFF1B20FFF750FF1020FFF745
:101110004DFFFFF78FFFFFF7D7FED020FFF702FF4D
:101120001C20FFF743FF1020FFF740FFFFF782FF6F
:10113000FFF7CAFED020FFF7F5FE3820FFF736FF95
:101140000120FFF733FFFFF775FFFFF7BDFED0204B
:10115000FFF7E8FE6820FFF729FF0020FFF726FFD2
:10116000FFF768FF00BF80BD80B584B000AF0346C5
:10117000FB71FFF7A9FED020FFF7D4FEFB791846DC
:10118000FFF714FFFFF7A0FED120FFF7CBFE0120F1
:10119000FFF766FF0346FB73FFF74CFFFB7B184628
:1011A0001037BD4680BD80B582B000AF7860396031
:1011B0003B20FFF7D9FF03461A463B681A703C20D4
:1011C000FFF7D2FF03461A467B681A7000BF083744
:1011D000BD4680BD80B582B000AF786039603D20EB
:1011E000FFF7C2FF03461A463B681A703E20FFF71E
:1011F000BBFF03461A467B681A7000BF0837BD461E
:1012000080BD80B582B000AF786039603F20FFF7C5
:10121000ABFF03461A463B681A704020FFF7A4FF55
:1012200003461A467B681A7000BF0837BD4680BD6A
:1012300080B584B000AF786007F10C03013307F18B
:101240000C0219461046FFF7AEFF7B7B1B021AB259
:101250003B7B1BB213431AB27B681A8007F10C0365
:10126000013307F10C0219461046FFF7B3FF7B7BF1
:101270001B0219B23B7B1AB27B6802330A4312B2DB
:101280001A8007F10C03013307F10C0219461046CE
:10129000FFF7B7FF7B7B1B0219B23B7B1AB27B685F
:1012A00004330A4312B21A8000BF1037BD4680BD16
:1012B00080B58CB000AF7860002387F82F3007F13D
:1012C00008031846FFF7B4FFB7F908301846FFF7D0
:1012D000A1F855A3D3E90023FFF706F902460B4610
:1012E000104619464FF00002514BFFF7FDF8024639
:1012F0000B46104619464FF000024E4BFFF71EFA00
:1013000002460B46C7E90823B7F90A301846FFF72B
:1013100081F845A3D3E90023FFF7E6F802460B4620
:10132000104619464FF00002414BFFF7DDF8024628
:101330000B46104619464FF000023E4BFFF7FEF9F0
:1013400002460B46C7E90623B7F90C301846FFF7EB
:1013500061F835A3D3E90023FFF7C6F802460B4630
:10136000104619464FF00002314BFFF7BDF8024618
:101370000B46104619464FF000022E4BFFF7DEF9E0
:1013800002460B46C7E904234FF000022A4BD7E977
:101390000601FFF72FFB0346002B09D14FF0000297
:1013A000254BD7E90401FFF725FB0346002B29D085
:1013B0007B68D3E90023D7E90601FEF7DDFE02468C
:1013C0000B46104619464FF000021C4BFFF712FB6C
:1013D0000346002B13D17B680833D3E90023D7E9F8
:1013E0000401FEF7C9FE02460B46104619464FF0AF
:1013F0000002124BFFF7FEFA0346002B02D0012336
:1014000087F82F307968D7E90623C1E900237B6884
:1014100003F10801D7E90423C1E9002397F82F302D
:1014200018463037BD4680BD9A99999999992340BD
:10143000000020400000E040000018400000144080
:1014400080B400AF0E4B1B680D4A43F001031360DC
:1014500000BF0B4B1B685B0803F00103002BF8D0A7
:10146000074B5B68064A23F001035360044B5B683B
:10147000034A23F00203536000BFBD4680BC70479F
:101480000010024080B483B000AF03460A46FB71EF
:101490001346BB71BB791F2B2AD8FB79032B1CD0B9
:1014A000032B26DC012B02D0022B0BD021E0134BA7
:1014B0005B69BA79012101FA02F211460F4A0B4326
:1014C000536116E00D4BDB69BA79012101FA02F292
:1014D00011460A4A0B43D3610BE0084B9B69BA796A
:1014E000012101FA02F21146044A0B43936100E024
:1014F00000BF00BF0C37BD4680BC704700100240E3
:1015000080B483B000AF7860104A7B6853600F4BA3
:101510001B680E4A43F00103136000BF0B4B1B68AE
:101520001B0C03F00103002BF8D0084B1B68074A83
:1015300023F001031360054B00225A60034B002285
:101540009A6000BF0C37BD4680BC704710E000E0D9
:1015500080B582B000AF124B1B68002B11D1114B2C
:101560001B68104A23F0020313600E4B1B680D4AE0
:1015700023F0010313600B4B00225A60094B002239
:101580009A60094B1B689847064B1B681B0CDBB223
:1015900003F00103FB7100BF0837BD4680BD00BFEB
:1015A0002000002010E000E01C00002080B582B088
:1015B00000AF78607B684FF47A7202FB03F3184641
:1015C000FFF79EFF00BF0837BD4680BD80B500AF66
:1015D000054B1B68002B05D0044B00221A60024B00
:1015E0001B68984700BF80BD2400002000380140E0
:1015F00080B500AF054B1B68002B05D0044B0022C3
:101600001A60024B1B68984700BF80BD280000206D
:10161000004400400000000080B588B000AF002307
:10162000FB77FFF70DFF02210320FFF72BFF0322BB
:1016300007210020FFF7F2F9002207210020FFF721
:10164000B3FA032206210020FFF7E8F90022062161
:101650000020FFF7A9FA012206210020FFF776FB00
:10166000FFF7E4FBFFF72EFD3220FFF79FFF3B461D
:101670001846FFF7DDFDB7F902301846FEF7CAFE3F
:101680002BA3D3E90023FEF72FFF02460B4610469B
:10169000194602460B46FEF771FD02460B46104600
:1016A00019464FF00002244BFFF748F802460B465C
:1016B000C7E90223B7F904301846FEF7ABFE1CA3B6
:1016C000D3E90023FEF710FF02460B4610461946E9
:1016D00002460B46FEF752FD02460B4610461946DF
:1016E0004FF00002144BFFF729F802460B46C7E9FA
:1016F000042307F108031846FFF7DAFD0346FB77DA
:10170000FB7F012BF5D1002206210020FFF71EFBF5
:10171000012207210020FFF719FB6420FFF746FF95
:10172000002207210020FFF711FBE2E7AFF3008062
:101730009A999999999923400000E0400D4885466F
:10174000AFF300800C480D490D4A002302E0D45845
:10175000C4500433C4188C42F9D30A4A0A4C0023FB
:1017600001E013600432A242FBD300F011F8FFF74E
:1017700053FFFEE7002800200000002000000020AA
:10178000F8170008000000202C000020FEE70000F1
:1017900070B500260C4D0D4C641BA410A64209D157
:1017A00000F01AF800260A4D0A4C641BA410A64249
:1017B00005D170BD55F8043B98470136EEE755F862
:1017C000043B98470136F2E7F0170008F0170008CD
:1017D000F0170008F4170008F8B500BFF8BC08BC03
:1017E0009E467047F8B500BFF8BC08BC9E467047DF
:0417F0005501000897
:0417F40031010008B7
:040000050800173D9B
:00000001FF
